{
  "contractName": "CrowdFunding",
  "abi": [
    {
      "inputs": [],
      "stateMutability": "nonpayable",
      "type": "constructor"
    },
    {
      "inputs": [
        {
          "internalType": "uint256",
          "name": "",
          "type": "uint256"
        },
        {
          "internalType": "address",
          "name": "",
          "type": "address"
        }
      ],
      "name": "isParticipate",
      "outputs": [
        {
          "internalType": "bool",
          "name": "",
          "type": "bool"
        }
      ],
      "stateMutability": "view",
      "type": "function",
      "constant": true
    },
    {
      "inputs": [],
      "name": "numCampaigns",
      "outputs": [
        {
          "internalType": "uint256",
          "name": "",
          "type": "uint256"
        }
      ],
      "stateMutability": "view",
      "type": "function",
      "constant": true
    },
    {
      "inputs": [
        {
          "internalType": "address payable",
          "name": "receiver",
          "type": "address"
        },
        {
          "internalType": "uint256",
          "name": "goal",
          "type": "uint256"
        }
      ],
      "name": "newCampaign",
      "outputs": [
        {
          "internalType": "uint256",
          "name": "compaignID",
          "type": "uint256"
        }
      ],
      "stateMutability": "nonpayable",
      "type": "function"
    },
    {
      "inputs": [
        {
          "internalType": "uint256",
          "name": "campaignID",
          "type": "uint256"
        }
      ],
      "name": "bid",
      "outputs": [],
      "stateMutability": "payable",
      "type": "function",
      "payable": true
    },
    {
      "inputs": [
        {
          "internalType": "uint256",
          "name": "campaignID",
          "type": "uint256"
        }
      ],
      "name": "withdraw",
      "outputs": [
        {
          "internalType": "bool",
          "name": "reached",
          "type": "bool"
        }
      ],
      "stateMutability": "nonpayable",
      "type": "function"
    }
  ],
  "bytecode": "0x60a060405234801561001057600080fd5b503360805260805161040a6100306000396000610289015261040a6000f3fe60806040526004361061004a5760003560e01c80632c0f7b6f1461004f5780632e1a7d4d14610078578063454a2ab3146100a8578063728dda19146100bd578063f7572cf3146100f8575b600080fd5b34801561005b57600080fd5b5061006560005481565b6040519081526020015b60405180910390f35b34801561008457600080fd5b506100986100933660046102ff565b610118565b604051901515815260200161006f565b6100bb6100b63660046102ff565b610190565b005b3480156100c957600080fd5b506100986100d8366004610330565b600360209081526000928352604080842090915290825290205460ff1681565b34801561010457600080fd5b50610065610113366004610360565b61027c565b600081815260016020526040812060038101546002820154111561013f5750600092915050565b600381018054600091829055825460405191926001600160a01b039091169183156108fc0291849190818181858888f19350505050158015610185573d6000803e3d6000fd5b506001949350505050565b6000818152600360209081526040808320338452909152902054819060ff16156101b957600080fd5b6000828152600160205260408120600381018054919234926101dc9084906103a2565b9091555050600181810180546000906101f69084906103a2565b90915550505060008281526002602081815260408084208151808301835233808252348286019081528354600180820186559489528689209351970290920180546001600160a01b0319166001600160a01b03909716969096178655905194820194909455958452600382528084209284529190529020805460ff191690921790915550565b6000336001600160a01b037f000000000000000000000000000000000000000000000000000000000000000016146102b357600080fd5b6000805490806102c2836103bb565b90915550600081815260016020526040902080546001600160a01b0319166001600160a01b03959095169490941784556002909301919091555090565b60006020828403121561031157600080fd5b5035919050565b6001600160a01b038116811461032d57600080fd5b50565b6000806040838503121561034357600080fd5b82359150602083013561035581610318565b809150509250929050565b6000806040838503121561037357600080fd5b823561037e81610318565b946020939093013593505050565b634e487b7160e01b600052601160045260246000fd5b808201808211156103b5576103b561038c565b92915050565b6000600182016103cd576103cd61038c565b506001019056fea2646970667358221220ae9ba1df9695fa216a94e8c1e3e75233227b0d134aad6e261bd698d26b166af664736f6c63430008130033",
  "immutableReferences": {
    "39": [
      {
        "length": 32,
        "start": 649
      }
    ]
  },
  "source": "//\n//\n//\n\npragma solidity 0.8.19;\n\ncontract CrowdFundingStorage {\n    struct Campaign{\n         address payable receiver;  //\n         uint numFunders;   //\n         uint fundingGoal;  //\n         uint totalAmount;  //\n     }\n\n     struct Funder{\n         address addr;  //\n         uint amount;   //\n     }\n\n    //\n    uint public numCampaigns;\n     //k v \n     mapping(uint => Campaign) campaigns;\n     //k v \n     mapping(uint => Funder[]) funders;\n\n    //k1 k2 v false true \n    mapping(uint => mapping(address => bool)) public isParticipate;\n}\n\n//\ncontract CrowdFunding is CrowdFundingStorage{\n    address immutable onwer;\n    constructor(){\n        //onwer\n        onwer = msg.sender;\n    }\n     \n     //\n     modifier judgeParticipate(uint compaignID) {\n         require(isParticipate[compaignID][msg.sender] == false);\n         _; //require\n     }\n\n     //\n     modifier isOwner() {\n         require(msg.sender == onwer);\n         _;\n     }\n\n     //(receiver goal )\n     function newCampaign(address payable receiver, uint goal) external isOwner() returns(uint compaignID) {\n        compaignID = numCampaigns++;    //todo compaignID\n        Campaign storage c = campaigns[compaignID]; //campaigns \n        c.receiver = receiver;\n        c.fundingGoal = goal;\n     }\n\n    //\n    function bid(uint campaignID) external payable judgeParticipate(campaignID){\n        Campaign storage c = campaigns[campaignID];\n        c.totalAmount += msg.value;\n        c.numFunders += 1;\n        //\n        funders[campaignID].push(\n            Funder({\n                addr: msg.sender,\n                amount: msg.value\n            })\n        );\n        //\n        isParticipate[campaignID][msg.sender] = true;\n    }\n\n     //\n     function withdraw(uint campaignID) external returns(bool reached) {\n         Campaign storage c = campaigns[campaignID];\n         if (c.fundingGoal > c.totalAmount) {\n             return false;\n         }\n         uint amount = c.totalAmount;\n         c.totalAmount = 0;\n         c.receiver.transfer(amount);   //todo gas\n\n         return true;\n     }\n\n}",
  "sourcePath": "/Users/zhouzhou/contract_workspace/tmp/contracts/CrowdFunding.sol",
  "compiler": {
    "name": "solc",
    "version": "0.8.19+commit.7dd6d404.Emscripten.clang"
  },
  "schemaVersion": "3.4.13",
  "updatedAt": "2023-04-07T11:38:12.530Z",
  "networkType": "ethereum",
  "devdoc": {
    "kind": "dev",
    "methods": {},
    "version": 1
  },
  "userdoc": {
    "kind": "user",
    "methods": {},
    "version": 1
  }
}