{
  "contractName": "CrowdFunding",
  "abi": [
    {
      "inputs": [],
      "stateMutability": "nonpayable",
      "type": "constructor"
    },
    {
      "anonymous": false,
      "inputs": [
        {
          "indexed": false,
          "internalType": "uint256",
          "name": "campaignID",
          "type": "uint256"
        },
        {
          "indexed": false,
          "internalType": "address",
          "name": "receiver",
          "type": "address"
        },
        {
          "indexed": false,
          "internalType": "uint256",
          "name": "goal",
          "type": "uint256"
        }
      ],
      "name": "CampaignLog",
      "type": "event"
    },
    {
      "inputs": [
        {
          "internalType": "uint256",
          "name": "",
          "type": "uint256"
        }
      ],
      "name": "campaignsArray",
      "outputs": [
        {
          "internalType": "address payable",
          "name": "receiver",
          "type": "address"
        },
        {
          "internalType": "uint256",
          "name": "numFunders",
          "type": "uint256"
        },
        {
          "internalType": "uint256",
          "name": "fundingGoal",
          "type": "uint256"
        },
        {
          "internalType": "uint256",
          "name": "totalAmount",
          "type": "uint256"
        }
      ],
      "stateMutability": "view",
      "type": "function",
      "constant": true
    },
    {
      "inputs": [
        {
          "internalType": "uint256",
          "name": "",
          "type": "uint256"
        },
        {
          "internalType": "address",
          "name": "",
          "type": "address"
        }
      ],
      "name": "isParticipate",
      "outputs": [
        {
          "internalType": "bool",
          "name": "",
          "type": "bool"
        }
      ],
      "stateMutability": "view",
      "type": "function",
      "constant": true
    },
    {
      "inputs": [],
      "name": "numCampaigns",
      "outputs": [
        {
          "internalType": "uint256",
          "name": "",
          "type": "uint256"
        }
      ],
      "stateMutability": "view",
      "type": "function",
      "constant": true
    },
    {
      "inputs": [
        {
          "internalType": "address payable",
          "name": "receiver",
          "type": "address"
        },
        {
          "internalType": "uint256",
          "name": "goal",
          "type": "uint256"
        }
      ],
      "name": "newCampaign",
      "outputs": [
        {
          "internalType": "uint256",
          "name": "compaignID",
          "type": "uint256"
        }
      ],
      "stateMutability": "nonpayable",
      "type": "function"
    },
    {
      "inputs": [
        {
          "internalType": "uint256",
          "name": "campaignID",
          "type": "uint256"
        }
      ],
      "name": "bid",
      "outputs": [],
      "stateMutability": "payable",
      "type": "function",
      "payable": true
    },
    {
      "inputs": [
        {
          "internalType": "uint256",
          "name": "campaignID",
          "type": "uint256"
        }
      ],
      "name": "withdraw",
      "outputs": [
        {
          "internalType": "bool",
          "name": "reached",
          "type": "bool"
        }
      ],
      "stateMutability": "nonpayable",
      "type": "function"
    }
  ],
  "bytecode": "0x60a060405234801561001057600080fd5b50336080526080516105aa610030600039600061032201526105aa6000f3fe6080604052600436106100555760003560e01c80632c0f7b6f1461005a5780632e1a7d4d14610083578063454a2ab3146100b35780636780b75a146100c8578063728dda1914610112578063f7572cf31461014d575b600080fd5b34801561006657600080fd5b5061007060005481565b6040519081526020015b60405180910390f35b34801561008f57600080fd5b506100a361009e36600461049f565b61016d565b604051901515815260200161007a565b6100c66100c136600461049f565b6101e5565b005b3480156100d457600080fd5b506100e86100e336600461049f565b6102d1565b604080516001600160a01b039095168552602085019390935291830152606082015260800161007a565b34801561011e57600080fd5b506100a361012d3660046104d0565b600460209081526000928352604080842090915290825290205460ff1681565b34801561015957600080fd5b50610070610168366004610500565b610315565b60008181526001602052604081206003810154600282015411156101945750600092915050565b600381018054600091829055825460405191926001600160a01b039091169183156108fc0291849190818181858888f193505050501580156101da573d6000803e3d6000fd5b506001949350505050565b6000818152600460209081526040808320338452909152902054819060ff161561020e57600080fd5b600082815260016020526040812060038101805491923492610231908490610542565b90915550506001818101805460009061024b908490610542565b90915550505060008281526002602081815260408084208151808301835233808252348286019081528354600180820186559489528689209351970290920180546001600160a01b0319166001600160a01b03909716969096178655905194820194909455958452600482528084209284529190529020805460ff191690921790915550565b600381815481106102e157600080fd5b600091825260209091206004909102018054600182015460028301546003909301546001600160a01b039092169350919084565b6000336001600160a01b037f0000000000000000000000000000000000000000000000000000000000000000161461034c57600080fd5b60008054908061035b8361055b565b90915550600081815260016020818152604080842080546001600160a01b03199081166001600160a01b038b81169182178455600284018b815560038054808a0182559981905285547fc2575a0e9e593c00f959f8c92f12db2869c3395a3b0502d05e2516446f71f85b6004909b029a8b01805491909416951694909417909155958301547fc2575a0e9e593c00f959f8c92f12db2869c3395a3b0502d05e2516446f71f85c88015594547fc2575a0e9e593c00f959f8c92f12db2869c3395a3b0502d05e2516446f71f85d8701558101547fc2575a0e9e593c00f959f8c92f12db2869c3395a3b0502d05e2516446f71f85e90950194909455805185815291820192909252908101859052919250907fd5979c3bd81a7e1a390fc8030ec1389d2ef3309f57e15ff428366366c5fa226c9060600160405180910390a15092915050565b6000602082840312156104b157600080fd5b5035919050565b6001600160a01b03811681146104cd57600080fd5b50565b600080604083850312156104e357600080fd5b8235915060208301356104f5816104b8565b809150509250929050565b6000806040838503121561051357600080fd5b823561051e816104b8565b946020939093013593505050565b634e487b7160e01b600052601160045260246000fd5b808201808211156105555761055561052c565b92915050565b60006001820161056d5761056d61052c565b506001019056fea26469706673582212204dd808fc91c35644d918747d7c89c76e4cf77b5e4ae1156fd5cc700d9fa8232064736f6c63430008130033",
  "immutableReferences": {
    "3759": [
      {
        "length": 32,
        "start": 802
      }
    ]
  },
  "source": "//\n//\n//\n\npragma solidity 0.8.19;\n\n\n//\ncontract CrowdFunding {\n    address immutable onwer;\n\n    struct Campaign{\n         address payable receiver;  //\n         uint numFunders;   //\n         uint fundingGoal;  //\n         uint totalAmount;  //\n     }\n\n     struct Funder{\n         address addr;  //\n         uint amount;   //\n     }\n\n    //\n    uint public numCampaigns;\n    //k v \n    mapping(uint => Campaign) campaigns;\n    //k v \n    mapping(uint => Funder[]) funders;\n\n    //\n    Campaign[] public campaignsArray;\n\n    //k1 k2 v false true \n    mapping(uint => mapping(address => bool)) public isParticipate;\n\n    //\n    event CampaignLog(uint campaignID, address receiver, uint goal);\n\n    //\n     modifier isOwner() {\n         require(msg.sender == onwer);\n         _;\n     }\n\n    constructor(){\n        //onwer\n        onwer = msg.sender;\n    }\n     \n     //\n     modifier judgeParticipate(uint compaignID) {\n         require(isParticipate[compaignID][msg.sender] == false);\n         _; //require\n     }\n\n     //(receiver goal )\n    function newCampaign(address payable receiver, uint goal) external isOwner() returns(uint compaignID) {\n        compaignID = numCampaigns++;    //todo compaignID\n        Campaign storage c = campaigns[compaignID]; //campaigns \n        c.receiver = receiver;\n        c.fundingGoal = goal;\n        //???\n        campaignsArray.push(c);\n        emit CampaignLog(compaignID, receiver, goal);\n     }\n\n    //\n    function bid(uint campaignID) external payable judgeParticipate(campaignID){\n        Campaign storage c = campaigns[campaignID];\n        c.totalAmount += msg.value;\n        c.numFunders += 1;\n        //\n        funders[campaignID].push(\n            Funder({\n                addr: msg.sender,\n                amount: msg.value\n            })\n        );\n        //\n        isParticipate[campaignID][msg.sender] = true;\n    }\n\n     //\n     function withdraw(uint campaignID) external returns(bool reached) {\n         Campaign storage c = campaigns[campaignID];\n         if (c.fundingGoal > c.totalAmount) {\n             return false;\n         }\n         uint amount = c.totalAmount;\n         c.totalAmount = 0;\n         c.receiver.transfer(amount);   //todo gas\n\n         return true;\n     }\n\n}",
  "sourcePath": "/Users/zhouzhou/contract_workspace/third-contract-project/contracts/CrowdFunding.sol",
  "compiler": {
    "name": "solc",
    "version": "0.8.19+commit.7dd6d404.Emscripten.clang"
  },
  "schemaVersion": "3.4.13",
  "updatedAt": "2023-05-03T03:46:47.119Z",
  "networkType": "ethereum",
  "devdoc": {
    "kind": "dev",
    "methods": {},
    "version": 1
  },
  "userdoc": {
    "kind": "user",
    "methods": {},
    "version": 1
  }
}