{
  "contractName": "CrowdFundingStorage",
  "abi": [
    {
      "inputs": [
        {
          "internalType": "uint256",
          "name": "",
          "type": "uint256"
        },
        {
          "internalType": "address",
          "name": "",
          "type": "address"
        }
      ],
      "name": "isParticipate",
      "outputs": [
        {
          "internalType": "bool",
          "name": "",
          "type": "bool"
        }
      ],
      "stateMutability": "view",
      "type": "function"
    },
    {
      "inputs": [],
      "name": "numCampaigns",
      "outputs": [
        {
          "internalType": "uint256",
          "name": "",
          "type": "uint256"
        }
      ],
      "stateMutability": "view",
      "type": "function"
    }
  ],
  "bytecode": "0x608060405234801561001057600080fd5b5060fc8061001f6000396000f3fe6080604052348015600f57600080fd5b506004361060325760003560e01c80632c0f7b6f146037578063728dda19146052575b600080fd5b603f60005481565b6040519081526020015b60405180910390f35b607d605d366004608c565b600360209081526000928352604080842090915290825290205460ff1681565b60405190151581526020016049565b60008060408385031215609e57600080fd5b8235915060208301356001600160a01b038116811460bb57600080fd5b80915050925092905056fea26469706673582212202d9d19f6719d4e9e4fc52bae08c304d3c42b3909b6e04c4661664aaddbdb2b2964736f6c63430008130033",
  "immutableReferences": {},
  "source": "//创建不同的募资活动，用来募集以太坊\n//记录相应活动下的募资总体信息（参与人数，募集的以太坊数量），以及记录参与的用户地址及投入数量\n//业务逻辑（用户参与，添加新的募集活动，活动结束后进行资金领取）\n\npragma solidity 0.8.19;\n\ncontract CrowdFundingStorage {\n    struct Campaign{\n         address payable receiver;  //募资接收地址\n         uint numFunders;   //募捐人数\n         uint fundingGoal;  //募捐目标金额\n         uint totalAmount;  //募捐实际总金额\n     }\n\n     struct Funder{\n         address addr;  //募捐人地址\n         uint amount;   //募捐人募捐总金额\n     }\n\n    //活动数量\n    uint public numCampaigns;\n     //k 募资活动编号，v 募捐活动\n     mapping(uint => Campaign) campaigns;\n     //k 募资活动编号，v 募捐人列表\n     mapping(uint => Funder[]) funders;\n\n    //k1 募资活动编号，k2 参与人地址，v false 未参与，true 已参与\n    mapping(uint => mapping(address => bool)) public isParticipate;\n}\n\n//支持多继承\ncontract CrowdFunding is CrowdFundingStorage{\n    address immutable onwer;\n    constructor(){\n        //谁发布合约谁就是onwer\n        onwer = msg.sender;\n    }\n     \n     //判定用户不能参与因此相同活动\n     modifier judgeParticipate(uint compaignID) {\n         require(isParticipate[compaignID][msg.sender] == false);\n         _; //通过require后，继续执行函数内容\n     }\n\n     //只有合约创建人才能创建募资活动\n     modifier isOwner() {\n         require(msg.sender == onwer);\n         _;\n     }\n\n     //创建募资活动(入参：receiver 募捐活动接收地址，goal 募捐目标金额；返回参数：募捐活动编号)\n     function newCampaign(address payable receiver, uint goal) external isOwner() returns(uint compaignID) {\n        compaignID = numCampaigns++;    //todo compaignID算是定义了嘛？？？\n        Campaign storage c = campaigns[compaignID]; //campaigns 不会数组越界嘛？？？\n        c.receiver = receiver;\n        c.fundingGoal = goal;\n     }\n\n    //参与募资活动\n    function bid(uint campaignID) external payable judgeParticipate(campaignID){\n        Campaign storage c = campaigns[campaignID];\n        c.totalAmount += msg.value;\n        c.numFunders += 1;\n        //\n        funders[campaignID].push(\n            Funder({\n                addr: msg.sender,\n                amount: msg.value\n            })\n        );\n        //\n        isParticipate[campaignID][msg.sender] = true;\n    }\n\n     //活动结束后领取资金\n     function withdraw(uint campaignID) external returns(bool reached) {\n         Campaign storage c = campaigns[campaignID];\n         if (c.fundingGoal > c.totalAmount) {\n             return false;\n         }\n         uint amount = c.totalAmount;\n         c.totalAmount = 0;\n         c.receiver.transfer(amount);   //todo 转账过程是：募捐人钱包地址转到合约地址，合约地址再转到最终某钱包地址，这样是不是太消耗gas费用了？？？\n\n         return true;\n     }\n\n}",
  "sourcePath": "/Users/zhouzhou/contract_workspace/tmp/contracts/CrowdFunding.sol",
  "compiler": {
    "name": "solc",
    "version": "0.8.19+commit.7dd6d404.Emscripten.clang"
  },
  "schemaVersion": "3.4.13",
  "updatedAt": "2023-04-07T03:58:58.714Z",
  "devdoc": {
    "kind": "dev",
    "methods": {},
    "version": 1
  },
  "userdoc": {
    "kind": "user",
    "methods": {},
    "version": 1
  }
}