{
  "contractName": "CustomERC20",
  "abi": [
    {
      "inputs": [
        {
          "internalType": "address",
          "name": "_creator",
          "type": "address"
        },
        {
          "internalType": "uint256",
          "name": "_initSupply",
          "type": "uint256"
        },
        {
          "internalType": "string",
          "name": "_name",
          "type": "string"
        },
        {
          "internalType": "string",
          "name": "_symbol",
          "type": "string"
        },
        {
          "internalType": "uint8",
          "name": "_decimals",
          "type": "uint8"
        },
        {
          "internalType": "uint256",
          "name": "_tradeBurnRotio",
          "type": "uint256"
        },
        {
          "internalType": "uint256",
          "name": "_tradeFeeRatio",
          "type": "uint256"
        },
        {
          "internalType": "address",
          "name": "_team",
          "type": "address"
        }
      ],
      "stateMutability": "nonpayable",
      "type": "constructor"
    },
    {
      "anonymous": false,
      "inputs": [
        {
          "indexed": true,
          "internalType": "address",
          "name": "owner",
          "type": "address"
        },
        {
          "indexed": true,
          "internalType": "address",
          "name": "spender",
          "type": "address"
        },
        {
          "indexed": false,
          "internalType": "uint256",
          "name": "amount",
          "type": "uint256"
        }
      ],
      "name": "Approval",
      "type": "event"
    },
    {
      "anonymous": false,
      "inputs": [
        {
          "indexed": true,
          "internalType": "address",
          "name": "user",
          "type": "address"
        },
        {
          "indexed": false,
          "internalType": "uint256",
          "name": "value",
          "type": "uint256"
        }
      ],
      "name": "Burn",
      "type": "event"
    },
    {
      "anonymous": false,
      "inputs": [
        {
          "indexed": false,
          "internalType": "address",
          "name": "oldTeam",
          "type": "address"
        },
        {
          "indexed": false,
          "internalType": "address",
          "name": "newTeam",
          "type": "address"
        }
      ],
      "name": "ChangeTeam",
      "type": "event"
    },
    {
      "anonymous": false,
      "inputs": [
        {
          "indexed": true,
          "internalType": "address",
          "name": "user",
          "type": "address"
        },
        {
          "indexed": false,
          "internalType": "uint256",
          "name": "value",
          "type": "uint256"
        }
      ],
      "name": "Mint",
      "type": "event"
    },
    {
      "anonymous": false,
      "inputs": [
        {
          "indexed": true,
          "internalType": "address",
          "name": "previousOwner",
          "type": "address"
        },
        {
          "indexed": true,
          "internalType": "address",
          "name": "newOwner",
          "type": "address"
        }
      ],
      "name": "OwnershipTransferred",
      "type": "event"
    },
    {
      "anonymous": false,
      "inputs": [
        {
          "indexed": true,
          "internalType": "address",
          "name": "from",
          "type": "address"
        },
        {
          "indexed": true,
          "internalType": "address",
          "name": "to",
          "type": "address"
        },
        {
          "indexed": false,
          "internalType": "uint256",
          "name": "amount",
          "type": "uint256"
        }
      ],
      "name": "Transfer",
      "type": "event"
    },
    {
      "inputs": [],
      "name": "decimals",
      "outputs": [
        {
          "internalType": "uint8",
          "name": "",
          "type": "uint8"
        }
      ],
      "stateMutability": "view",
      "type": "function",
      "constant": true
    },
    {
      "inputs": [],
      "name": "name",
      "outputs": [
        {
          "internalType": "string",
          "name": "",
          "type": "string"
        }
      ],
      "stateMutability": "view",
      "type": "function",
      "constant": true
    },
    {
      "inputs": [],
      "name": "owner",
      "outputs": [
        {
          "internalType": "address",
          "name": "",
          "type": "address"
        }
      ],
      "stateMutability": "view",
      "type": "function",
      "constant": true
    },
    {
      "inputs": [],
      "name": "renounceOwnership",
      "outputs": [],
      "stateMutability": "nonpayable",
      "type": "function"
    },
    {
      "inputs": [],
      "name": "symbol",
      "outputs": [
        {
          "internalType": "string",
          "name": "",
          "type": "string"
        }
      ],
      "stateMutability": "view",
      "type": "function",
      "constant": true
    },
    {
      "inputs": [],
      "name": "team",
      "outputs": [
        {
          "internalType": "address",
          "name": "",
          "type": "address"
        }
      ],
      "stateMutability": "view",
      "type": "function",
      "constant": true
    },
    {
      "inputs": [],
      "name": "totalSupply",
      "outputs": [
        {
          "internalType": "uint256",
          "name": "",
          "type": "uint256"
        }
      ],
      "stateMutability": "view",
      "type": "function",
      "constant": true
    },
    {
      "inputs": [],
      "name": "tradeBurnRatio",
      "outputs": [
        {
          "internalType": "uint256",
          "name": "",
          "type": "uint256"
        }
      ],
      "stateMutability": "view",
      "type": "function",
      "constant": true
    },
    {
      "inputs": [],
      "name": "tradeFeeRatio",
      "outputs": [
        {
          "internalType": "uint256",
          "name": "",
          "type": "uint256"
        }
      ],
      "stateMutability": "view",
      "type": "function",
      "constant": true
    },
    {
      "inputs": [
        {
          "internalType": "address",
          "name": "newOwner",
          "type": "address"
        }
      ],
      "name": "transferOwnership",
      "outputs": [],
      "stateMutability": "nonpayable",
      "type": "function"
    },
    {
      "inputs": [
        {
          "internalType": "address",
          "name": "owner",
          "type": "address"
        }
      ],
      "name": "balanceOf",
      "outputs": [
        {
          "internalType": "uint256",
          "name": "balance",
          "type": "uint256"
        }
      ],
      "stateMutability": "view",
      "type": "function",
      "constant": true
    }
  ],
  "bytecode": "0x608060405234801561001057600080fd5b5060405161093a38038061093a83398101604081905261002f916102c4565b6100383361019d565b60016100448782610409565b5060036100518682610409565b506002805460ff19811660ff90911617905560048790556001600160a01b03881660009081526008602052604090208790556113888311156100da5760405162461bcd60e51b815260206004820152601860248201527f54524144455f4255524e5f524154494f5f494e56414c4944000000000000000060448201526064015b60405180910390fd5b61138882111561012c5760405162461bcd60e51b815260206004820152601760248201527f54524144455f4645455f524154494f5f494e56414c494400000000000000000060448201526064016100d1565b60058390556006829055600780546001600160a01b0319166001600160a01b0383811691909117909155604051888152908916906000907fddf252ad1be2c89b69c2b068fc378daa952ba7f163c4a11628f55a4df523b3ef9060200160405180910390a350505050505050506104c8565b600080546001600160a01b038381166001600160a01b0319831681178455604051919092169283917f8be0079c531659141344cd1fd0a4f28419497f9722a3daafe3b4186f6b6457e09190a35050565b80516001600160a01b038116811461020457600080fd5b919050565b634e487b7160e01b600052604160045260246000fd5b600082601f83011261023057600080fd5b81516001600160401b038082111561024a5761024a610209565b604051601f8301601f19908116603f0116810190828211818310171561027257610272610209565b8160405283815260209250868385880101111561028e57600080fd5b600091505b838210156102b05785820183015181830184015290820190610293565b600093810190920192909252949350505050565b600080600080600080600080610100898b0312156102e157600080fd5b6102ea896101ed565b60208a015160408b015191995097506001600160401b038082111561030e57600080fd5b61031a8c838d0161021f565b975060608b015191508082111561033057600080fd5b5061033d8b828c0161021f565b955050608089015160ff8116811461035457600080fd5b60a08a015160c08b01519195509350915061037160e08a016101ed565b90509295985092959890939650565b600181811c9082168061039457607f821691505b6020821081036103b457634e487b7160e01b600052602260045260246000fd5b50919050565b601f82111561040457600081815260208120601f850160051c810160208610156103e15750805b601f850160051c820191505b81811015610400578281556001016103ed565b5050505b505050565b81516001600160401b0381111561042257610422610209565b610436816104308454610380565b846103ba565b602080601f83116001811461046b57600084156104535750858301515b600019600386901b1c1916600185901b178555610400565b600085815260208120601f198616915b8281101561049a5788860151825594840194600190910190840161047b565b50858210156104b85787850151600019600388901b60f8161c191681555b5050505050600190811b01905550565b610463806104d76000396000f3fe608060405234801561001057600080fd5b50600436106100a95760003560e01c806385f2aef21161007157806385f2aef214610135578063870c66d6146101605780638da5cb5b1461016957806395d89b411461017a578063e59850f714610182578063f2fde38b1461018b57600080fd5b806306fdde03146100ae57806318160ddd146100cc578063313ce567146100e357806370a0823114610102578063715018a61461012b575b600080fd5b6100b661019e565b6040516100c39190610375565b60405180910390f35b6100d560045481565b6040519081526020016100c3565b6002546100f09060ff1681565b60405160ff90911681526020016100c3565b6100d56101103660046103c3565b6001600160a01b031660009081526008602052604090205490565b61013361022c565b005b600754610148906001600160a01b031681565b6040516001600160a01b0390911681526020016100c3565b6100d560065481565b6000546001600160a01b0316610148565b6100b6610240565b6100d560055481565b6101336101993660046103c3565b61024d565b600180546101ab906103f3565b80601f01602080910402602001604051908101604052809291908181526020018280546101d7906103f3565b80156102245780601f106101f957610100808354040283529160200191610224565b820191906000526020600020905b81548152906001019060200180831161020757829003601f168201915b505050505081565b6102346102cb565b61023e6000610325565b565b600380546101ab906103f3565b6102556102cb565b6001600160a01b0381166102bf5760405162461bcd60e51b815260206004820152602660248201527f4f776e61626c653a206e6577206f776e657220697320746865207a65726f206160448201526564647265737360d01b60648201526084015b60405180910390fd5b6102c881610325565b50565b6000546001600160a01b0316331461023e5760405162461bcd60e51b815260206004820181905260248201527f4f776e61626c653a2063616c6c6572206973206e6f7420746865206f776e657260448201526064016102b6565b600080546001600160a01b038381166001600160a01b0319831681178455604051919092169283917f8be0079c531659141344cd1fd0a4f28419497f9722a3daafe3b4186f6b6457e09190a35050565b600060208083528351808285015260005b818110156103a257858101830151858201604001528201610386565b506000604082860101526040601f19601f8301168501019250505092915050565b6000602082840312156103d557600080fd5b81356001600160a01b03811681146103ec57600080fd5b9392505050565b600181811c9082168061040757607f821691505b60208210810361042757634e487b7160e01b600052602260045260246000fd5b5091905056fea2646970667358221220993a25097003ec0eabff42219d2db93b2c2cc77cbe74c9daba114eb7ca80e5f864736f6c63430008130033",
  "immutableReferences": {},
  "source": "//SPDX-License-Identifier: MIT\npragma solidity 0.8.19;\n\nimport \"@openzeppelin/contracts/utils/math/SafeMath.sol\";\nimport \"@openzeppelin/contracts/access/Ownable.sol\";\n\ncontract CustomERC20 is Ownable {\n    using SafeMath for uint256;\n\n    string public name;\n    uint8 public decimals;\n    string public symbol;\n    uint256 public totalSupply;\n\n    uint256 public tradeBurnRatio;\n    uint256 public tradeFeeRatio;\n    address public team;\n\n    mapping(address => uint256) balances;\n    mapping(address => mapping(address => uint256)) internal allowed;\n\n    event Transfer(address indexed from, address indexed to, uint256 amount);\n    event Approval(address indexed owner, address indexed spender, uint256 amount);\n    event Mint(address indexed user, uint256 value);\n    event Burn(address indexed user, uint256 value);\n\n    event ChangeTeam(address oldTeam, address newTeam);\n\n    constructor(\n        address _creator,   //\n        uint256 _initSupply,\n        string memory _name,\n        string memory _symbol,\n        uint8 _decimals,\n        uint256 _tradeBurnRotio,\n        uint256 _tradeFeeRatio,\n        address _team\n    ) {\n        name = _name;\n        symbol = _symbol;\n        decimals = decimals;\n        totalSupply = _initSupply;\n        balances[_creator] = _initSupply;\n        require(_tradeBurnRotio >= 0 && _tradeBurnRotio <= 5000, \"TRADE_BURN_RATIO_INVALID\");\n        require(_tradeFeeRatio >= 0 && _tradeFeeRatio <= 5000, \"TRADE_FEE_RATIO_INVALID\");\n        tradeBurnRatio = _tradeBurnRotio;\n        tradeFeeRatio = _tradeFeeRatio;\n        team = _team;\n        emit Transfer(address(0), _creator, _initSupply);\n    }\n\n    //function transfer(address to, uint256 amount) public returns (bool) {\n    //    _transfer(msg.sender, to, amount);\n    //    return true;\n    //}\n\n    function balanceOf(address owner) public view returns (uint256 balance) {\n        return balances[owner];\n    }\n\n   // function transferFrom(\n   //     address from,\n   //     address to\n   // ) \n\n}",
  "sourcePath": "/Users/zhouzhou/contract_workspace/third-contract-project/contracts/CustomERC20.sol",
  "compiler": {
    "name": "solc",
    "version": "0.8.19+commit.7dd6d404.Emscripten.clang"
  },
  "schemaVersion": "3.4.13",
  "updatedAt": "2023-05-03T03:46:47.992Z",
  "networkType": "ethereum",
  "devdoc": {
    "kind": "dev",
    "methods": {
      "owner()": {
        "details": "Returns the address of the current owner."
      },
      "renounceOwnership()": {
        "details": "Leaves the contract without owner. It will not be possible to call `onlyOwner` functions anymore. Can only be called by the current owner. NOTE: Renouncing ownership will leave the contract without an owner, thereby removing any functionality that is only available to the owner."
      },
      "transferOwnership(address)": {
        "details": "Transfers ownership of the contract to a new account (`newOwner`). Can only be called by the current owner."
      }
    },
    "version": 1
  },
  "userdoc": {
    "kind": "user",
    "methods": {},
    "version": 1
  }
}