{
  "contractName": "ERC20Ext",
  "abi": [
    {
      "inputs": [],
      "stateMutability": "nonpayable",
      "type": "constructor"
    },
    {
      "anonymous": false,
      "inputs": [
        {
          "indexed": true,
          "internalType": "address",
          "name": "owner",
          "type": "address"
        },
        {
          "indexed": true,
          "internalType": "address",
          "name": "spender",
          "type": "address"
        },
        {
          "indexed": false,
          "internalType": "uint256",
          "name": "value",
          "type": "uint256"
        }
      ],
      "name": "Approval",
      "type": "event"
    },
    {
      "anonymous": false,
      "inputs": [
        {
          "indexed": true,
          "internalType": "address",
          "name": "previousOwner",
          "type": "address"
        },
        {
          "indexed": true,
          "internalType": "address",
          "name": "newOwner",
          "type": "address"
        }
      ],
      "name": "OwnershipTransferred",
      "type": "event"
    },
    {
      "anonymous": false,
      "inputs": [
        {
          "indexed": true,
          "internalType": "address",
          "name": "from",
          "type": "address"
        },
        {
          "indexed": true,
          "internalType": "address",
          "name": "to",
          "type": "address"
        },
        {
          "indexed": false,
          "internalType": "uint256",
          "name": "value",
          "type": "uint256"
        }
      ],
      "name": "Transfer",
      "type": "event"
    },
    {
      "inputs": [
        {
          "internalType": "address",
          "name": "owner",
          "type": "address"
        },
        {
          "internalType": "address",
          "name": "spender",
          "type": "address"
        }
      ],
      "name": "allowance",
      "outputs": [
        {
          "internalType": "uint256",
          "name": "",
          "type": "uint256"
        }
      ],
      "stateMutability": "view",
      "type": "function",
      "constant": true
    },
    {
      "inputs": [
        {
          "internalType": "address",
          "name": "spender",
          "type": "address"
        },
        {
          "internalType": "uint256",
          "name": "amount",
          "type": "uint256"
        }
      ],
      "name": "approve",
      "outputs": [
        {
          "internalType": "bool",
          "name": "",
          "type": "bool"
        }
      ],
      "stateMutability": "nonpayable",
      "type": "function"
    },
    {
      "inputs": [
        {
          "internalType": "address",
          "name": "account",
          "type": "address"
        }
      ],
      "name": "balanceOf",
      "outputs": [
        {
          "internalType": "uint256",
          "name": "",
          "type": "uint256"
        }
      ],
      "stateMutability": "view",
      "type": "function",
      "constant": true
    },
    {
      "inputs": [],
      "name": "burnRatio",
      "outputs": [
        {
          "internalType": "uint256",
          "name": "",
          "type": "uint256"
        }
      ],
      "stateMutability": "view",
      "type": "function",
      "constant": true
    },
    {
      "inputs": [],
      "name": "decimals",
      "outputs": [
        {
          "internalType": "uint8",
          "name": "",
          "type": "uint8"
        }
      ],
      "stateMutability": "view",
      "type": "function",
      "constant": true
    },
    {
      "inputs": [
        {
          "internalType": "address",
          "name": "spender",
          "type": "address"
        },
        {
          "internalType": "uint256",
          "name": "subtractedValue",
          "type": "uint256"
        }
      ],
      "name": "decreaseAllowance",
      "outputs": [
        {
          "internalType": "bool",
          "name": "",
          "type": "bool"
        }
      ],
      "stateMutability": "nonpayable",
      "type": "function"
    },
    {
      "inputs": [],
      "name": "feeAddress",
      "outputs": [
        {
          "internalType": "address",
          "name": "",
          "type": "address"
        }
      ],
      "stateMutability": "view",
      "type": "function",
      "constant": true
    },
    {
      "inputs": [],
      "name": "feeRatio",
      "outputs": [
        {
          "internalType": "uint256",
          "name": "",
          "type": "uint256"
        }
      ],
      "stateMutability": "view",
      "type": "function",
      "constant": true
    },
    {
      "inputs": [
        {
          "internalType": "address",
          "name": "spender",
          "type": "address"
        },
        {
          "internalType": "uint256",
          "name": "addedValue",
          "type": "uint256"
        }
      ],
      "name": "increaseAllowance",
      "outputs": [
        {
          "internalType": "bool",
          "name": "",
          "type": "bool"
        }
      ],
      "stateMutability": "nonpayable",
      "type": "function"
    },
    {
      "inputs": [],
      "name": "name",
      "outputs": [
        {
          "internalType": "string",
          "name": "",
          "type": "string"
        }
      ],
      "stateMutability": "view",
      "type": "function",
      "constant": true
    },
    {
      "inputs": [],
      "name": "owner",
      "outputs": [
        {
          "internalType": "address",
          "name": "",
          "type": "address"
        }
      ],
      "stateMutability": "view",
      "type": "function",
      "constant": true
    },
    {
      "inputs": [],
      "name": "renounceOwnership",
      "outputs": [],
      "stateMutability": "nonpayable",
      "type": "function"
    },
    {
      "inputs": [],
      "name": "symbol",
      "outputs": [
        {
          "internalType": "string",
          "name": "",
          "type": "string"
        }
      ],
      "stateMutability": "view",
      "type": "function",
      "constant": true
    },
    {
      "inputs": [],
      "name": "totalSupply",
      "outputs": [
        {
          "internalType": "uint256",
          "name": "",
          "type": "uint256"
        }
      ],
      "stateMutability": "view",
      "type": "function",
      "constant": true
    },
    {
      "inputs": [
        {
          "internalType": "address",
          "name": "from",
          "type": "address"
        },
        {
          "internalType": "address",
          "name": "to",
          "type": "address"
        },
        {
          "internalType": "uint256",
          "name": "amount",
          "type": "uint256"
        }
      ],
      "name": "transferFrom",
      "outputs": [
        {
          "internalType": "bool",
          "name": "",
          "type": "bool"
        }
      ],
      "stateMutability": "nonpayable",
      "type": "function"
    },
    {
      "inputs": [
        {
          "internalType": "address",
          "name": "newOwner",
          "type": "address"
        }
      ],
      "name": "transferOwnership",
      "outputs": [],
      "stateMutability": "nonpayable",
      "type": "function"
    },
    {
      "inputs": [
        {
          "internalType": "uint256",
          "name": "_feeRatio",
          "type": "uint256"
        },
        {
          "internalType": "uint256",
          "name": "_burnRatio",
          "type": "uint256"
        },
        {
          "internalType": "address",
          "name": "_feeAddress",
          "type": "address"
        }
      ],
      "name": "set",
      "outputs": [],
      "stateMutability": "nonpayable",
      "type": "function"
    },
    {
      "inputs": [
        {
          "internalType": "address",
          "name": "_account",
          "type": "address"
        },
        {
          "internalType": "uint256",
          "name": "_amount",
          "type": "uint256"
        }
      ],
      "name": "mint",
      "outputs": [],
      "stateMutability": "nonpayable",
      "type": "function"
    },
    {
      "inputs": [
        {
          "internalType": "uint256",
          "name": "_amount",
          "type": "uint256"
        }
      ],
      "name": "burn",
      "outputs": [],
      "stateMutability": "nonpayable",
      "type": "function"
    },
    {
      "inputs": [
        {
          "internalType": "address",
          "name": "_to",
          "type": "address"
        },
        {
          "internalType": "uint256",
          "name": "_amount",
          "type": "uint256"
        }
      ],
      "name": "transfer",
      "outputs": [
        {
          "internalType": "bool",
          "name": "",
          "type": "bool"
        }
      ],
      "stateMutability": "nonpayable",
      "type": "function"
    }
  ],
  "bytecode": "0x60806040523480156200001157600080fd5b506040518060400160405280601681526020017f54484953204953204120455854454e4420544f4b454e000000000000000000008152506040518060400160405280600381526020016210511560ea1b8152508160039081620000759190620001a2565b506004620000848282620001a2565b505050620000a16200009b620000a760201b60201c565b620000ab565b6200026e565b3390565b600580546001600160a01b038381166001600160a01b0319831681179093556040519116919082907f8be0079c531659141344cd1fd0a4f28419497f9722a3daafe3b4186f6b6457e090600090a35050565b634e487b7160e01b600052604160045260246000fd5b600181811c908216806200012857607f821691505b6020821081036200014957634e487b7160e01b600052602260045260246000fd5b50919050565b601f8211156200019d57600081815260208120601f850160051c81016020861015620001785750805b601f850160051c820191505b81811015620001995782815560010162000184565b5050505b505050565b81516001600160401b03811115620001be57620001be620000fd565b620001d681620001cf845462000113565b846200014f565b602080601f8311600181146200020e5760008415620001f55750858301515b600019600386901b1c1916600185901b17855562000199565b600085815260208120601f198616915b828110156200023f578886015182559484019460019091019084016200021e565b50858210156200025e5787850151600019600388901b60f8161c191681555b5050505050600190811b01905550565b610f92806200027e6000396000f3fe608060405234801561001057600080fd5b506004361061012c5760003560e01c80635192c82c116100ad57806395d89b411161007157806395d89b4114610273578063a457c2d71461027b578063a9059cbb1461028e578063dd62ed3e146102a1578063f2fde38b146102b457600080fd5b80635192c82c1461021557806370a082311461021e578063715018a6146102475780638a1017ed1461024f5780638da5cb5b1461026257600080fd5b806339509351116100f457806339509351146101a657806340c10f19146101b957806341275358146101ce57806341744dd4146101f957806342966c681461020257600080fd5b806306fdde0314610131578063095ea7b31461014f57806318160ddd1461017257806323b872dd14610184578063313ce56714610197575b600080fd5b6101396102c7565b6040516101469190610d41565b60405180910390f35b61016261015d366004610dab565b610359565b6040519015158152602001610146565b6002545b604051908152602001610146565b610162610192366004610dd5565b610373565b60405160128152602001610146565b6101626101b4366004610dab565b610397565b6101cc6101c7366004610dab565b6103b9565b005b6008546101e1906001600160a01b031681565b6040516001600160a01b039091168152602001610146565b61017660065481565b6101cc610210366004610e11565b6103cf565b61017660075481565b61017661022c366004610e2a565b6001600160a01b031660009081526020819052604090205490565b6101cc610440565b6101cc61025d366004610e45565b610454565b6005546001600160a01b03166101e1565b610139610486565b610162610289366004610dab565b610495565b61016261029c366004610dab565b610510565b6101766102af366004610e7a565b61069d565b6101cc6102c2366004610e2a565b6106c8565b6060600380546102d690610ead565b80601f016020809104026020016040519081016040528092919081815260200182805461030290610ead565b801561034f5780601f106103245761010080835404028352916020019161034f565b820191906000526020600020905b81548152906001019060200180831161033257829003601f168201915b5050505050905090565b60003361036781858561073e565b60019150505b92915050565b600033610381858285610863565b61038c8585856108dd565b506001949350505050565b6000336103678185856103aa838361069d565b6103b49190610efd565b61073e565b6103c1610a81565b6103cb8282610adb565b5050565b336000908152602081905260409020548111156104335760405162461bcd60e51b815260206004820152601b60248201527f6275726e20616d6f757420657863656564732062616c616e63652e000000000060448201526064015b60405180910390fd5b61043d3382610b9a565b50565b610448610a81565b6104526000610cc4565b565b61045c610a81565b600692909255600755600880546001600160a01b0319166001600160a01b03909216919091179055565b6060600480546102d690610ead565b600033816104a3828661069d565b9050838110156105035760405162461bcd60e51b815260206004820152602560248201527f45524332303a2064656372656173656420616c6c6f77616e63652062656c6f77604482015264207a65726f60d81b606482015260840161042a565b61038c828686840361073e565b3360009081526020819052604081205482111561056f5760405162461bcd60e51b815260206004820181905260248201527f7472616e7366657220616d6f756e7420657863656564732062616c616e63652e604482015260640161042a565b6008546001600160a01b03166105bf5760405162461bcd60e51b81526020600482015260156024820152743332b2a0b2323932b9b9903737ba1039b2ba32b21760591b604482015260640161042a565b6000600654116106025760405162461bcd60e51b815260206004820152600e60248201526d3332b2903737ba1039b2ba32b21760911b604482015260640161042a565b60006106256103e861061f60065486610d1690919063ffffffff16565b90610d29565b905060006106446103e861061f60075487610d1690919063ffffffff16565b9050600061065c826106568786610d35565b90610d35565b90506106693387836108dd565b6008546106819033906001600160a01b0316856108dd565b8115610691576106913383610b9a565b50600195945050505050565b6001600160a01b03918216600090815260016020908152604080832093909416825291909152205490565b6106d0610a81565b6001600160a01b0381166107355760405162461bcd60e51b815260206004820152602660248201527f4f776e61626c653a206e6577206f776e657220697320746865207a65726f206160448201526564647265737360d01b606482015260840161042a565b61043d81610cc4565b6001600160a01b0383166107a05760405162461bcd60e51b8152602060048201526024808201527f45524332303a20617070726f76652066726f6d20746865207a65726f206164646044820152637265737360e01b606482015260840161042a565b6001600160a01b0382166108015760405162461bcd60e51b815260206004820152602260248201527f45524332303a20617070726f766520746f20746865207a65726f206164647265604482015261737360f01b606482015260840161042a565b6001600160a01b0383811660008181526001602090815260408083209487168084529482529182902085905590518481527f8c5be1e5ebec7d5bd14f71427d1e84f3dd0314c0f7b2291e5b200ac8c7c3b92591015b60405180910390a3505050565b600061086f848461069d565b905060001981146108d757818110156108ca5760405162461bcd60e51b815260206004820152601d60248201527f45524332303a20696e73756666696369656e7420616c6c6f77616e6365000000604482015260640161042a565b6108d7848484840361073e565b50505050565b6001600160a01b0383166109415760405162461bcd60e51b815260206004820152602560248201527f45524332303a207472616e736665722066726f6d20746865207a65726f206164604482015264647265737360d81b606482015260840161042a565b6001600160a01b0382166109a35760405162461bcd60e51b815260206004820152602360248201527f45524332303a207472616e7366657220746f20746865207a65726f206164647260448201526265737360e81b606482015260840161042a565b6001600160a01b03831660009081526020819052604090205481811015610a1b5760405162461bcd60e51b815260206004820152602660248201527f45524332303a207472616e7366657220616d6f756e7420657863656564732062604482015265616c616e636560d01b606482015260840161042a565b6001600160a01b03848116600081815260208181526040808320878703905593871680835291849020805487019055925185815290927fddf252ad1be2c89b69c2b068fc378daa952ba7f163c4a11628f55a4df523b3ef910160405180910390a36108d7565b6005546001600160a01b031633146104525760405162461bcd60e51b815260206004820181905260248201527f4f776e61626c653a2063616c6c6572206973206e6f7420746865206f776e6572604482015260640161042a565b6001600160a01b038216610b315760405162461bcd60e51b815260206004820152601f60248201527f45524332303a206d696e7420746f20746865207a65726f206164647265737300604482015260640161042a565b8060026000828254610b439190610efd565b90915550506001600160a01b038216600081815260208181526040808320805486019055518481527fddf252ad1be2c89b69c2b068fc378daa952ba7f163c4a11628f55a4df523b3ef910160405180910390a35050565b6001600160a01b038216610bfa5760405162461bcd60e51b815260206004820152602160248201527f45524332303a206275726e2066726f6d20746865207a65726f206164647265736044820152607360f81b606482015260840161042a565b6001600160a01b03821660009081526020819052604090205481811015610c6e5760405162461bcd60e51b815260206004820152602260248201527f45524332303a206275726e20616d6f756e7420657863656564732062616c616e604482015261636560f01b606482015260840161042a565b6001600160a01b0383166000818152602081815260408083208686039055600280548790039055518581529192917fddf252ad1be2c89b69c2b068fc378daa952ba7f163c4a11628f55a4df523b3ef9101610856565b600580546001600160a01b038381166001600160a01b0319831681179093556040519116919082907f8be0079c531659141344cd1fd0a4f28419497f9722a3daafe3b4186f6b6457e090600090a35050565b6000610d228284610f10565b9392505050565b6000610d228284610f27565b6000610d228284610f49565b600060208083528351808285015260005b81811015610d6e57858101830151858201604001528201610d52565b506000604082860101526040601f19601f8301168501019250505092915050565b80356001600160a01b0381168114610da657600080fd5b919050565b60008060408385031215610dbe57600080fd5b610dc783610d8f565b946020939093013593505050565b600080600060608486031215610dea57600080fd5b610df384610d8f565b9250610e0160208501610d8f565b9150604084013590509250925092565b600060208284031215610e2357600080fd5b5035919050565b600060208284031215610e3c57600080fd5b610d2282610d8f565b600080600060608486031215610e5a57600080fd5b8335925060208401359150610e7160408501610d8f565b90509250925092565b60008060408385031215610e8d57600080fd5b610e9683610d8f565b9150610ea460208401610d8f565b90509250929050565b600181811c90821680610ec157607f821691505b602082108103610ee157634e487b7160e01b600052602260045260246000fd5b50919050565b634e487b7160e01b600052601160045260246000fd5b8082018082111561036d5761036d610ee7565b808202811582820484141761036d5761036d610ee7565b600082610f4457634e487b7160e01b600052601260045260246000fd5b500490565b8181038181111561036d5761036d610ee756fea2646970667358221220469d364be2c71ad448975c3b7ea8af0298b36f84d5de3c243275b47ae7b170be64736f6c63430008130033",
  "immutableReferences": {},
  "source": "pragma solidity ^0.8.0; //The ^ means that it will not compile on anything less than 0.8.0 and it will also not work with a 0.5.0 compiler.\n\nimport \"@openzeppelin/contracts/token/ERC20/ERC20.sol\";\nimport \"@openzeppelin/contracts/utils/math/SafeMath.sol\";\nimport \"@openzeppelin/contracts/access/Ownable.sol\";\n\n\ncontract ERC20Ext is ERC20, Ownable {\n    // \n    using SafeMath for uint256; //todo \n\n    uint public feeRatio; //feeRatio/1000\n    uint public burnRatio;  //burnRatio/1000\n    address public feeAddress;  //\n\n    constructor () ERC20(\"THIS IS A EXTEND TOKEN\",\"ADT\"){}\n    \n    function set(uint _feeRatio, uint _burnRatio, address _feeAddress) public onlyOwner {\n        feeRatio = _feeRatio;\n        burnRatio = _burnRatio;\n        feeAddress = _feeAddress;\n    }\n\n    function mint(address _account, uint256 _amount) public onlyOwner {\n        _mint(_account, _amount);\n    }\n\n    function burn(uint256 _amount) public {\n        require(balanceOf(msg.sender) >= _amount, \"burn amout exceeds balance.\");\n        _burn(msg.sender, _amount);\n    } \n\n    function transfer(address _to, uint256 _amount) public virtual override returns (bool) {\n        require(balanceOf(msg.sender) >= _amount,\"transfer amount exceeds balance.\");\n        require(feeAddress != address(0), \"feeAddress not seted.\"); //\n        require(feeRatio > 0, \"fee not seted.\"); //\n        uint256 fee = _amount.mul(feeRatio).div(1000);  //\n        uint256 burnAmount = _amount.mul(burnRatio).div(1000);  //\n        uint256 amount = _amount.sub(fee).sub(burnAmount);  //=--\n        _transfer(msg.sender, _to, amount);\n        _transfer(msg.sender, feeAddress, fee);\n        if(burnAmount > 0) {\n            _burn(msg.sender, burnAmount);\n        }\n        return true;\n    }\n\n}",
  "sourcePath": "/Users/zhouzhou/contract_workspace/third-contract-project/contracts/ERC20Ext.sol",
  "compiler": {
    "name": "solc",
    "version": "0.8.19+commit.7dd6d404.Emscripten.clang"
  },
  "schemaVersion": "3.4.13",
  "updatedAt": "2023-05-03T03:46:48.205Z",
  "networkType": "ethereum",
  "devdoc": {
    "events": {
      "Approval(address,address,uint256)": {
        "details": "Emitted when the allowance of a `spender` for an `owner` is set by a call to {approve}. `value` is the new allowance."
      },
      "Transfer(address,address,uint256)": {
        "details": "Emitted when `value` tokens are moved from one account (`from`) to another (`to`). Note that `value` may be zero."
      }
    },
    "kind": "dev",
    "methods": {
      "allowance(address,address)": {
        "details": "See {IERC20-allowance}."
      },
      "approve(address,uint256)": {
        "details": "See {IERC20-approve}. NOTE: If `amount` is the maximum `uint256`, the allowance is not updated on `transferFrom`. This is semantically equivalent to an infinite approval. Requirements: - `spender` cannot be the zero address."
      },
      "balanceOf(address)": {
        "details": "See {IERC20-balanceOf}."
      },
      "decimals()": {
        "details": "Returns the number of decimals used to get its user representation. For example, if `decimals` equals `2`, a balance of `505` tokens should be displayed to a user as `5.05` (`505 / 10 ** 2`). Tokens usually opt for a value of 18, imitating the relationship between Ether and Wei. This is the value {ERC20} uses, unless this function is overridden; NOTE: This information is only used for _display_ purposes: it in no way affects any of the arithmetic of the contract, including {IERC20-balanceOf} and {IERC20-transfer}."
      },
      "decreaseAllowance(address,uint256)": {
        "details": "Atomically decreases the allowance granted to `spender` by the caller. This is an alternative to {approve} that can be used as a mitigation for problems described in {IERC20-approve}. Emits an {Approval} event indicating the updated allowance. Requirements: - `spender` cannot be the zero address. - `spender` must have allowance for the caller of at least `subtractedValue`."
      },
      "increaseAllowance(address,uint256)": {
        "details": "Atomically increases the allowance granted to `spender` by the caller. This is an alternative to {approve} that can be used as a mitigation for problems described in {IERC20-approve}. Emits an {Approval} event indicating the updated allowance. Requirements: - `spender` cannot be the zero address."
      },
      "name()": {
        "details": "Returns the name of the token."
      },
      "owner()": {
        "details": "Returns the address of the current owner."
      },
      "renounceOwnership()": {
        "details": "Leaves the contract without owner. It will not be possible to call `onlyOwner` functions anymore. Can only be called by the current owner. NOTE: Renouncing ownership will leave the contract without an owner, thereby removing any functionality that is only available to the owner."
      },
      "symbol()": {
        "details": "Returns the symbol of the token, usually a shorter version of the name."
      },
      "totalSupply()": {
        "details": "See {IERC20-totalSupply}."
      },
      "transferFrom(address,address,uint256)": {
        "details": "See {IERC20-transferFrom}. Emits an {Approval} event indicating the updated allowance. This is not required by the EIP. See the note at the beginning of {ERC20}. NOTE: Does not update the allowance if the current allowance is the maximum `uint256`. Requirements: - `from` and `to` cannot be the zero address. - `from` must have a balance of at least `amount`. - the caller must have allowance for ``from``'s tokens of at least `amount`."
      },
      "transferOwnership(address)": {
        "details": "Transfers ownership of the contract to a new account (`newOwner`). Can only be called by the current owner."
      }
    },
    "version": 1
  },
  "userdoc": {
    "kind": "user",
    "methods": {},
    "version": 1
  }
}