{
  "contractName": "MintableERC721",
  "abi": [
    {
      "inputs": [
        {
          "internalType": "string",
          "name": "_name",
          "type": "string"
        },
        {
          "internalType": "string",
          "name": "_symbol",
          "type": "string"
        }
      ],
      "stateMutability": "nonpayable",
      "type": "constructor"
    },
    {
      "anonymous": false,
      "inputs": [
        {
          "indexed": true,
          "internalType": "address",
          "name": "owner",
          "type": "address"
        },
        {
          "indexed": true,
          "internalType": "address",
          "name": "approved",
          "type": "address"
        },
        {
          "indexed": true,
          "internalType": "uint256",
          "name": "tokenId",
          "type": "uint256"
        }
      ],
      "name": "Approval",
      "type": "event"
    },
    {
      "anonymous": false,
      "inputs": [
        {
          "indexed": true,
          "internalType": "address",
          "name": "owner",
          "type": "address"
        },
        {
          "indexed": true,
          "internalType": "address",
          "name": "operator",
          "type": "address"
        },
        {
          "indexed": false,
          "internalType": "bool",
          "name": "approved",
          "type": "bool"
        }
      ],
      "name": "ApprovalForAll",
      "type": "event"
    },
    {
      "anonymous": false,
      "inputs": [
        {
          "indexed": true,
          "internalType": "address",
          "name": "previousOwner",
          "type": "address"
        },
        {
          "indexed": true,
          "internalType": "address",
          "name": "newOwner",
          "type": "address"
        }
      ],
      "name": "OwnershipTransferred",
      "type": "event"
    },
    {
      "anonymous": false,
      "inputs": [
        {
          "indexed": true,
          "internalType": "address",
          "name": "from",
          "type": "address"
        },
        {
          "indexed": true,
          "internalType": "address",
          "name": "to",
          "type": "address"
        },
        {
          "indexed": true,
          "internalType": "uint256",
          "name": "tokenId",
          "type": "uint256"
        }
      ],
      "name": "Transfer",
      "type": "event"
    },
    {
      "inputs": [],
      "name": "_CUR_TOKENID_",
      "outputs": [
        {
          "internalType": "uint256",
          "name": "",
          "type": "uint256"
        }
      ],
      "stateMutability": "view",
      "type": "function"
    },
    {
      "inputs": [
        {
          "internalType": "address",
          "name": "to",
          "type": "address"
        },
        {
          "internalType": "uint256",
          "name": "tokenId",
          "type": "uint256"
        }
      ],
      "name": "approve",
      "outputs": [],
      "stateMutability": "nonpayable",
      "type": "function"
    },
    {
      "inputs": [
        {
          "internalType": "address",
          "name": "owner",
          "type": "address"
        }
      ],
      "name": "balanceOf",
      "outputs": [
        {
          "internalType": "uint256",
          "name": "",
          "type": "uint256"
        }
      ],
      "stateMutability": "view",
      "type": "function"
    },
    {
      "inputs": [
        {
          "internalType": "uint256",
          "name": "tokenId",
          "type": "uint256"
        }
      ],
      "name": "getApproved",
      "outputs": [
        {
          "internalType": "address",
          "name": "",
          "type": "address"
        }
      ],
      "stateMutability": "view",
      "type": "function"
    },
    {
      "inputs": [
        {
          "internalType": "address",
          "name": "owner",
          "type": "address"
        },
        {
          "internalType": "address",
          "name": "operator",
          "type": "address"
        }
      ],
      "name": "isApprovedForAll",
      "outputs": [
        {
          "internalType": "bool",
          "name": "",
          "type": "bool"
        }
      ],
      "stateMutability": "view",
      "type": "function"
    },
    {
      "inputs": [],
      "name": "name",
      "outputs": [
        {
          "internalType": "string",
          "name": "",
          "type": "string"
        }
      ],
      "stateMutability": "view",
      "type": "function"
    },
    {
      "inputs": [],
      "name": "owner",
      "outputs": [
        {
          "internalType": "address",
          "name": "",
          "type": "address"
        }
      ],
      "stateMutability": "view",
      "type": "function"
    },
    {
      "inputs": [
        {
          "internalType": "uint256",
          "name": "tokenId",
          "type": "uint256"
        }
      ],
      "name": "ownerOf",
      "outputs": [
        {
          "internalType": "address",
          "name": "",
          "type": "address"
        }
      ],
      "stateMutability": "view",
      "type": "function"
    },
    {
      "inputs": [],
      "name": "renounceOwnership",
      "outputs": [],
      "stateMutability": "nonpayable",
      "type": "function"
    },
    {
      "inputs": [
        {
          "internalType": "address",
          "name": "from",
          "type": "address"
        },
        {
          "internalType": "address",
          "name": "to",
          "type": "address"
        },
        {
          "internalType": "uint256",
          "name": "tokenId",
          "type": "uint256"
        }
      ],
      "name": "safeTransferFrom",
      "outputs": [],
      "stateMutability": "nonpayable",
      "type": "function"
    },
    {
      "inputs": [
        {
          "internalType": "address",
          "name": "from",
          "type": "address"
        },
        {
          "internalType": "address",
          "name": "to",
          "type": "address"
        },
        {
          "internalType": "uint256",
          "name": "tokenId",
          "type": "uint256"
        },
        {
          "internalType": "bytes",
          "name": "data",
          "type": "bytes"
        }
      ],
      "name": "safeTransferFrom",
      "outputs": [],
      "stateMutability": "nonpayable",
      "type": "function"
    },
    {
      "inputs": [
        {
          "internalType": "address",
          "name": "operator",
          "type": "address"
        },
        {
          "internalType": "bool",
          "name": "approved",
          "type": "bool"
        }
      ],
      "name": "setApprovalForAll",
      "outputs": [],
      "stateMutability": "nonpayable",
      "type": "function"
    },
    {
      "inputs": [
        {
          "internalType": "bytes4",
          "name": "interfaceId",
          "type": "bytes4"
        }
      ],
      "name": "supportsInterface",
      "outputs": [
        {
          "internalType": "bool",
          "name": "",
          "type": "bool"
        }
      ],
      "stateMutability": "view",
      "type": "function"
    },
    {
      "inputs": [],
      "name": "symbol",
      "outputs": [
        {
          "internalType": "string",
          "name": "",
          "type": "string"
        }
      ],
      "stateMutability": "view",
      "type": "function"
    },
    {
      "inputs": [
        {
          "internalType": "uint256",
          "name": "tokenId",
          "type": "uint256"
        }
      ],
      "name": "tokenURI",
      "outputs": [
        {
          "internalType": "string",
          "name": "",
          "type": "string"
        }
      ],
      "stateMutability": "view",
      "type": "function"
    },
    {
      "inputs": [
        {
          "internalType": "address",
          "name": "from",
          "type": "address"
        },
        {
          "internalType": "address",
          "name": "to",
          "type": "address"
        },
        {
          "internalType": "uint256",
          "name": "tokenId",
          "type": "uint256"
        }
      ],
      "name": "transferFrom",
      "outputs": [],
      "stateMutability": "nonpayable",
      "type": "function"
    },
    {
      "inputs": [
        {
          "internalType": "address",
          "name": "newOwner",
          "type": "address"
        }
      ],
      "name": "transferOwnership",
      "outputs": [],
      "stateMutability": "nonpayable",
      "type": "function"
    },
    {
      "inputs": [
        {
          "internalType": "address[]",
          "name": "receivers",
          "type": "address[]"
        },
        {
          "internalType": "string[]",
          "name": "uris",
          "type": "string[]"
        }
      ],
      "name": "mint",
      "outputs": [],
      "stateMutability": "nonpayable",
      "type": "function"
    }
  ],
  "bytecode": "0x60806040523480156200001157600080fd5b5060405162001cf938038062001cf9833981016040819052620000349162000193565b818160006200004483826200028c565b5060016200005382826200028c565b505050620000706200006a6200007860201b60201c565b6200007c565b505062000358565b3390565b600780546001600160a01b038381166001600160a01b0319831681179093556040519116919082907f8be0079c531659141344cd1fd0a4f28419497f9722a3daafe3b4186f6b6457e090600090a35050565b634e487b7160e01b600052604160045260246000fd5b600082601f830112620000f657600080fd5b81516001600160401b0380821115620001135762000113620000ce565b604051601f8301601f19908116603f011681019082821181831017156200013e576200013e620000ce565b816040528381526020925086838588010111156200015b57600080fd5b600091505b838210156200017f578582018301518183018401529082019062000160565b600093810190920192909252949350505050565b60008060408385031215620001a757600080fd5b82516001600160401b0380821115620001bf57600080fd5b620001cd86838701620000e4565b93506020850151915080821115620001e457600080fd5b50620001f385828601620000e4565b9150509250929050565b600181811c908216806200021257607f821691505b6020821081036200023357634e487b7160e01b600052602260045260246000fd5b50919050565b601f8211156200028757600081815260208120601f850160051c81016020861015620002625750805b601f850160051c820191505b8181101562000283578281556001016200026e565b5050505b505050565b81516001600160401b03811115620002a857620002a8620000ce565b620002c081620002b98454620001fd565b8462000239565b602080601f831160018114620002f85760008415620002df5750858301515b600019600386901b1c1916600185901b17855562000283565b600085815260208120601f198616915b82811015620003295788860151825594840194600190910190840162000308565b5085821015620003485787850151600019600388901b60f8161c191681555b5050505050600190811b01905550565b61199180620003686000396000f3fe608060405234801561001057600080fd5b50600436106101165760003560e01c8063715018a6116100a2578063a22cb46511610071578063a22cb4651461022f578063b88d4fde14610242578063c87b56dd14610255578063e985e9c514610268578063f2fde38b1461027b57600080fd5b8063715018a6146102055780638698dbd61461020d5780638da5cb5b1461021657806395d89b411461022757600080fd5b806323b872dd116100e957806323b872dd1461019857806342842e0e146101ab5780634c7bc5cf146101be5780636352211e146101d157806370a08231146101e457600080fd5b806301ffc9a71461011b57806306fdde0314610143578063081812fc14610158578063095ea7b314610183575b600080fd5b61012e6101293660046112b8565b61028e565b60405190151581526020015b60405180910390f35b61014b6102e0565b60405161013a9190611325565b61016b610166366004611338565b610372565b6040516001600160a01b03909116815260200161013a565b61019661019136600461136d565b610399565b005b6101966101a6366004611397565b6104b3565b6101966101b9366004611397565b6104e4565b6101966101cc36600461141f565b6104ff565b61016b6101df366004611338565b610614565b6101f76101f236600461148b565b610674565b60405190815260200161013a565b6101966106fa565b6101f760085481565b6007546001600160a01b031661016b565b61014b61070e565b61019661023d3660046114a6565b61071d565b6101966102503660046114f8565b61072c565b61014b610263366004611338565b610764565b61012e6102763660046115d4565b610874565b61019661028936600461148b565b6108a2565b60006001600160e01b031982166380ac58cd60e01b14806102bf57506001600160e01b03198216635b5e139f60e01b145b806102da57506301ffc9a760e01b6001600160e01b03198316145b92915050565b6060600080546102ef90611607565b80601f016020809104026020016040519081016040528092919081815260200182805461031b90611607565b80156103685780601f1061033d57610100808354040283529160200191610368565b820191906000526020600020905b81548152906001019060200180831161034b57829003601f168201915b5050505050905090565b600061037d8261091b565b506000908152600460205260409020546001600160a01b031690565b60006103a482610614565b9050806001600160a01b0316836001600160a01b0316036104165760405162461bcd60e51b815260206004820152602160248201527f4552433732313a20617070726f76616c20746f2063757272656e74206f776e656044820152603960f91b60648201526084015b60405180910390fd5b336001600160a01b038216148061043257506104328133610874565b6104a45760405162461bcd60e51b815260206004820152603d60248201527f4552433732313a20617070726f76652063616c6c6572206973206e6f7420746f60448201527f6b656e206f776e6572206f7220617070726f76656420666f7220616c6c000000606482015260840161040d565b6104ae838361097a565b505050565b6104bd33826109e8565b6104d95760405162461bcd60e51b815260040161040d90611641565b6104ae838383610a46565b6104ae8383836040518060200160405280600081525061072c565b610507610baa565b8281146105495760405162461bcd60e51b815260206004820152601060248201526f0a082a4829aa6be9c9ea8be9a82a886960831b604482015260640161040d565b60005b8381101561060d576105868585838181106105695761056961168e565b905060200201602081019061057e919061148b565b600854610c04565b6105ea60085484848481811061059e5761059e61168e565b90506020028101906105b091906116a4565b8080601f016020809104026020016040519081016040528093929190818152602001838380828437600092019190915250610c1e92505050565b6008546105f8906001611701565b6008558061060581611714565b91505061054c565b5050505050565b6000818152600260205260408120546001600160a01b0316806102da5760405162461bcd60e51b8152602060048201526018602482015277115490cdcc8c4e881a5b9d985b1a59081d1bdad95b88125160421b604482015260640161040d565b60006001600160a01b0382166106de5760405162461bcd60e51b815260206004820152602960248201527f4552433732313a2061646472657373207a65726f206973206e6f7420612076616044820152683634b21037bbb732b960b91b606482015260840161040d565b506001600160a01b031660009081526003602052604090205490565b610702610baa565b61070c6000610cb1565b565b6060600180546102ef90611607565b610728338383610d03565b5050565b61073633836109e8565b6107525760405162461bcd60e51b815260040161040d90611641565b61075e84848484610dd1565b50505050565b606061076f8261091b565b6000828152600660205260408120805461078890611607565b80601f01602080910402602001604051908101604052809291908181526020018280546107b490611607565b80156108015780601f106107d657610100808354040283529160200191610801565b820191906000526020600020905b8154815290600101906020018083116107e457829003601f168201915b50505050509050600061081f60408051602081019091526000815290565b90508051600003610831575092915050565b81511561086357808260405160200161084b92919061172d565b60405160208183030381529060405292505050919050565b61086c84610e04565b949350505050565b6001600160a01b03918216600090815260056020908152604080832093909416825291909152205460ff1690565b6108aa610baa565b6001600160a01b03811661090f5760405162461bcd60e51b815260206004820152602660248201527f4f776e61626c653a206e6577206f776e657220697320746865207a65726f206160448201526564647265737360d01b606482015260840161040d565b61091881610cb1565b50565b6000818152600260205260409020546001600160a01b03166109185760405162461bcd60e51b8152602060048201526018602482015277115490cdcc8c4e881a5b9d985b1a59081d1bdad95b88125160421b604482015260640161040d565b600081815260046020526040902080546001600160a01b0319166001600160a01b03841690811790915581906109af82610614565b6001600160a01b03167f8c5be1e5ebec7d5bd14f71427d1e84f3dd0314c0f7b2291e5b200ac8c7c3b92560405160405180910390a45050565b6000806109f483610614565b9050806001600160a01b0316846001600160a01b03161480610a1b5750610a1b8185610874565b8061086c5750836001600160a01b0316610a3484610372565b6001600160a01b031614949350505050565b826001600160a01b0316610a5982610614565b6001600160a01b031614610a7f5760405162461bcd60e51b815260040161040d9061175c565b6001600160a01b038216610ae15760405162461bcd60e51b8152602060048201526024808201527f4552433732313a207472616e7366657220746f20746865207a65726f206164646044820152637265737360e01b606482015260840161040d565b826001600160a01b0316610af482610614565b6001600160a01b031614610b1a5760405162461bcd60e51b815260040161040d9061175c565b600081815260046020908152604080832080546001600160a01b03199081169091556001600160a01b0387811680865260038552838620805460001901905590871680865283862080546001019055868652600290945282852080549092168417909155905184937fddf252ad1be2c89b69c2b068fc378daa952ba7f163c4a11628f55a4df523b3ef91a4505050565b6007546001600160a01b0316331461070c5760405162461bcd60e51b815260206004820181905260248201527f4f776e61626c653a2063616c6c6572206973206e6f7420746865206f776e6572604482015260640161040d565b610728828260405180602001604052806000815250610e78565b6000828152600260205260409020546001600160a01b0316610c995760405162461bcd60e51b815260206004820152602e60248201527f45524337323155524953746f726167653a2055524920736574206f66206e6f6e60448201526d32bc34b9ba32b73a103a37b5b2b760911b606482015260840161040d565b60008281526006602052604090206104ae82826117ef565b600780546001600160a01b038381166001600160a01b0319831681179093556040519116919082907f8be0079c531659141344cd1fd0a4f28419497f9722a3daafe3b4186f6b6457e090600090a35050565b816001600160a01b0316836001600160a01b031603610d645760405162461bcd60e51b815260206004820152601960248201527f4552433732313a20617070726f766520746f2063616c6c657200000000000000604482015260640161040d565b6001600160a01b03838116600081815260056020908152604080832094871680845294825291829020805460ff191686151590811790915591519182527f17307eab39ab6107e8899845ad3d59bd9653f200f220920489ca2b5937696c31910160405180910390a3505050565b610ddc848484610a46565b610de884848484610eab565b61075e5760405162461bcd60e51b815260040161040d906118af565b6060610e0f8261091b565b6000610e2660408051602081019091526000815290565b90506000815111610e465760405180602001604052806000815250610e71565b80610e5084610fac565b604051602001610e6192919061172d565b6040516020818303038152906040525b9392505050565b610e82838361103f565b610e8f6000848484610eab565b6104ae5760405162461bcd60e51b815260040161040d906118af565b60006001600160a01b0384163b15610fa157604051630a85bd0160e11b81526001600160a01b0385169063150b7a0290610eef903390899088908890600401611901565b6020604051808303816000875af1925050508015610f2a575060408051601f3d908101601f19168201909252610f279181019061193e565b60015b610f87573d808015610f58576040519150601f19603f3d011682016040523d82523d6000602084013e610f5d565b606091505b508051600003610f7f5760405162461bcd60e51b815260040161040d906118af565b805181602001fd5b6001600160e01b031916630a85bd0160e11b14905061086c565b506001949350505050565b60606000610fb9836111ca565b600101905060008167ffffffffffffffff811115610fd957610fd96114e2565b6040519080825280601f01601f191660200182016040528015611003576020820181803683370190505b5090508181016020015b600019016f181899199a1a9b1b9c1cb0b131b232b360811b600a86061a8153600a850494508461100d57509392505050565b6001600160a01b0382166110955760405162461bcd60e51b815260206004820181905260248201527f4552433732313a206d696e7420746f20746865207a65726f2061646472657373604482015260640161040d565b6000818152600260205260409020546001600160a01b0316156110fa5760405162461bcd60e51b815260206004820152601c60248201527f4552433732313a20746f6b656e20616c7265616479206d696e74656400000000604482015260640161040d565b6000818152600260205260409020546001600160a01b03161561115f5760405162461bcd60e51b815260206004820152601c60248201527f4552433732313a20746f6b656e20616c7265616479206d696e74656400000000604482015260640161040d565b6001600160a01b038216600081815260036020908152604080832080546001019055848352600290915280822080546001600160a01b0319168417905551839291907fddf252ad1be2c89b69c2b068fc378daa952ba7f163c4a11628f55a4df523b3ef908290a45050565b60008072184f03e93ff9f4daa797ed6e38ed64bf6a1f0160401b83106112095772184f03e93ff9f4daa797ed6e38ed64bf6a1f0160401b830492506040015b6d04ee2d6d415b85acef81000000008310611235576d04ee2d6d415b85acef8100000000830492506020015b662386f26fc10000831061125357662386f26fc10000830492506010015b6305f5e100831061126b576305f5e100830492506008015b612710831061127f57612710830492506004015b60648310611291576064830492506002015b600a83106102da5760010192915050565b6001600160e01b03198116811461091857600080fd5b6000602082840312156112ca57600080fd5b8135610e71816112a2565b60005b838110156112f05781810151838201526020016112d8565b50506000910152565b600081518084526113118160208601602086016112d5565b601f01601f19169290920160200192915050565b602081526000610e7160208301846112f9565b60006020828403121561134a57600080fd5b5035919050565b80356001600160a01b038116811461136857600080fd5b919050565b6000806040838503121561138057600080fd5b61138983611351565b946020939093013593505050565b6000806000606084860312156113ac57600080fd5b6113b584611351565b92506113c360208501611351565b9150604084013590509250925092565b60008083601f8401126113e557600080fd5b50813567ffffffffffffffff8111156113fd57600080fd5b6020830191508360208260051b850101111561141857600080fd5b9250929050565b6000806000806040858703121561143557600080fd5b843567ffffffffffffffff8082111561144d57600080fd5b611459888389016113d3565b9096509450602087013591508082111561147257600080fd5b5061147f878288016113d3565b95989497509550505050565b60006020828403121561149d57600080fd5b610e7182611351565b600080604083850312156114b957600080fd5b6114c283611351565b9150602083013580151581146114d757600080fd5b809150509250929050565b634e487b7160e01b600052604160045260246000fd5b6000806000806080858703121561150e57600080fd5b61151785611351565b935061152560208601611351565b925060408501359150606085013567ffffffffffffffff8082111561154957600080fd5b818701915087601f83011261155d57600080fd5b81358181111561156f5761156f6114e2565b604051601f8201601f19908116603f01168101908382118183101715611597576115976114e2565b816040528281528a60208487010111156115b057600080fd5b82602086016020830137600060208483010152809550505050505092959194509250565b600080604083850312156115e757600080fd5b6115f083611351565b91506115fe60208401611351565b90509250929050565b600181811c9082168061161b57607f821691505b60208210810361163b57634e487b7160e01b600052602260045260246000fd5b50919050565b6020808252602d908201527f4552433732313a2063616c6c6572206973206e6f7420746f6b656e206f776e6560408201526c1c881bdc88185c1c1c9bdd9959609a1b606082015260800190565b634e487b7160e01b600052603260045260246000fd5b6000808335601e198436030181126116bb57600080fd5b83018035915067ffffffffffffffff8211156116d657600080fd5b60200191503681900382131561141857600080fd5b634e487b7160e01b600052601160045260246000fd5b808201808211156102da576102da6116eb565b600060018201611726576117266116eb565b5060010190565b6000835161173f8184602088016112d5565b8351908301906117538183602088016112d5565b01949350505050565b60208082526025908201527f4552433732313a207472616e736665722066726f6d20696e636f72726563742060408201526437bbb732b960d91b606082015260800190565b601f8211156104ae57600081815260208120601f850160051c810160208610156117c85750805b601f850160051c820191505b818110156117e7578281556001016117d4565b505050505050565b815167ffffffffffffffff811115611809576118096114e2565b61181d816118178454611607565b846117a1565b602080601f831160018114611852576000841561183a5750858301515b600019600386901b1c1916600185901b1785556117e7565b600085815260208120601f198616915b8281101561188157888601518255948401946001909101908401611862565b508582101561189f5787850151600019600388901b60f8161c191681555b5050505050600190811b01905550565b60208082526032908201527f4552433732313a207472616e7366657220746f206e6f6e20455243373231526560408201527131b2b4bb32b91034b6b83632b6b2b73a32b960711b606082015260800190565b6001600160a01b0385811682528416602082015260408101839052608060608201819052600090611934908301846112f9565b9695505050505050565b60006020828403121561195057600080fd5b8151610e71816112a256fea2646970667358221220bb625d5dbf10a1f78dd3ec1ea813c45d534e6eaad5fa772906a2915fbf60821864736f6c63430008130033",
  "immutableReferences": {},
  "source": "import \"@openzeppelin/contracts/token/ERC721/extensions/ERC721URIStorage.sol\";\nimport \"@openzeppelin/contracts/token/ERC721/ERC721.sol\";\nimport \"@openzeppelin/contracts/access/Ownable.sol\";\n\npragma solidity 0.8.19;\n\n//todo OwnerOwner\ncontract MintableERC721 is ERC721URIStorage, Ownable{\n    //ownermintNFTNFTNFTtokenIduri\n\n    uint256 public _CUR_TOKENID_;\n\n    //_name _symbol ???\n    constructor(string memory _name, string memory _symbol) ERC721(_name, _symbol) {}\n\n    function mint(\n        address[] calldata receivers,\n        string[] calldata uris\n    ) external onlyOwner {\n        require(receivers.length == uris.length, \"PARAMS_NOT_MATCH\");\n        for(uint256 i = 0; i < receivers.length; i++) {\n            _safeMint(receivers[i], _CUR_TOKENID_); //\n            _setTokenURI(_CUR_TOKENID_, uris[i]);\n            _CUR_TOKENID_ = _CUR_TOKENID_ + 1;\n        }\n    }\n\n}",
  "sourcePath": "/Users/zhouzhou/contract_workspace/tmp/contracts/MintableERC721.sol",
  "compiler": {
    "name": "solc",
    "version": "0.8.19+commit.7dd6d404.Emscripten.clang"
  },
  "schemaVersion": "3.4.13",
  "updatedAt": "2023-04-08T14:54:30.736Z",
  "devdoc": {
    "events": {
      "Approval(address,address,uint256)": {
        "details": "Emitted when `owner` enables `approved` to manage the `tokenId` token."
      },
      "ApprovalForAll(address,address,bool)": {
        "details": "Emitted when `owner` enables or disables (`approved`) `operator` to manage all of its assets."
      },
      "Transfer(address,address,uint256)": {
        "details": "Emitted when `tokenId` token is transferred from `from` to `to`."
      }
    },
    "kind": "dev",
    "methods": {
      "approve(address,uint256)": {
        "details": "See {IERC721-approve}."
      },
      "balanceOf(address)": {
        "details": "See {IERC721-balanceOf}."
      },
      "getApproved(uint256)": {
        "details": "See {IERC721-getApproved}."
      },
      "isApprovedForAll(address,address)": {
        "details": "See {IERC721-isApprovedForAll}."
      },
      "name()": {
        "details": "See {IERC721Metadata-name}."
      },
      "owner()": {
        "details": "Returns the address of the current owner."
      },
      "ownerOf(uint256)": {
        "details": "See {IERC721-ownerOf}."
      },
      "renounceOwnership()": {
        "details": "Leaves the contract without owner. It will not be possible to call `onlyOwner` functions anymore. Can only be called by the current owner. NOTE: Renouncing ownership will leave the contract without an owner, thereby removing any functionality that is only available to the owner."
      },
      "safeTransferFrom(address,address,uint256)": {
        "details": "See {IERC721-safeTransferFrom}."
      },
      "safeTransferFrom(address,address,uint256,bytes)": {
        "details": "See {IERC721-safeTransferFrom}."
      },
      "setApprovalForAll(address,bool)": {
        "details": "See {IERC721-setApprovalForAll}."
      },
      "supportsInterface(bytes4)": {
        "details": "See {IERC165-supportsInterface}."
      },
      "symbol()": {
        "details": "See {IERC721Metadata-symbol}."
      },
      "tokenURI(uint256)": {
        "details": "See {IERC721Metadata-tokenURI}."
      },
      "transferFrom(address,address,uint256)": {
        "details": "See {IERC721-transferFrom}."
      },
      "transferOwnership(address)": {
        "details": "Transfers ownership of the contract to a new account (`newOwner`). Can only be called by the current owner."
      }
    },
    "version": 1
  },
  "userdoc": {
    "kind": "user",
    "methods": {},
    "version": 1
  }
}